<!DOCTYPE html>
<html lang="zh-CN">
<head>
  <meta charset="UTF-8">
<meta name="viewport" content="width=device-width, initial-scale=1, maximum-scale=2">
<meta name="theme-color" content="#222">
<meta name="generator" content="Hexo 5.2.0">
  <link rel="apple-touch-icon" sizes="180x180" href="/images/apple-touch-icon-next.png">
  <link rel="icon" type="image/png" sizes="32x32" href="/images/favicon-32x32-next.png">
  <link rel="icon" type="image/png" sizes="16x16" href="/images/favicon-16x16-next.png">
  <link rel="mask-icon" href="/images/logo.svg" color="#222">

<link rel="stylesheet" href="/css/main.css">

<link rel="stylesheet" href="//fonts.googleapis.com/css?family=Lato:300,300italic,400,400italic,700,700italic|Pacifico:300,300italic,400,400italic,700,700italic&display=swap&subset=latin,latin-ext">
<link rel="stylesheet" href="/lib/font-awesome/css/all.min.css">

<script id="hexo-configurations">
    var NexT = window.NexT || {};
    var CONFIG = {"hostname":"imzy.vip","root":"/","scheme":"Gemini","version":"7.8.0","exturl":false,"sidebar":{"position":"left","display":"post","padding":18,"offset":12,"onmobile":false},"copycode":{"enable":false,"show_result":false,"style":null},"back2top":{"enable":true,"sidebar":false,"scrollpercent":false},"bookmark":{"enable":false,"color":"#222","save":"auto"},"fancybox":false,"mediumzoom":false,"lazyload":false,"pangu":false,"comments":{"style":"tabs","active":null,"storage":true,"lazyload":false,"nav":null},"algolia":{"hits":{"per_page":10},"labels":{"input_placeholder":"Search for Posts","hits_empty":"We didn't find any results for the search: ${query}","hits_stats":"${hits} results found in ${time} ms"}},"localsearch":{"enable":false,"trigger":"auto","top_n_per_article":1,"unescape":false,"preload":false},"motion":{"enable":true,"async":false,"transition":{"post_block":"fadeIn","post_header":"slideDownIn","post_body":"slideDownIn","coll_header":"slideLeftIn","sidebar":"slideUpIn"}}};
  </script>

  <meta name="description" content="之前的文章讲了构建裸交易的过程，但是上文直接构建裸交易是没有创建找零地址的，所以输入和输出的差值都会成为矿工的交易费。极容易造成高额的交易费，所以这篇文章在之前的基础上使用 fundrawtransaction 来创建具有找零地址的交易。">
<meta property="og:type" content="article">
<meta property="og:title" content="创建具有找零地址的交易">
<meta property="og:url" content="https://imzy.vip/posts/27102/index.html">
<meta property="og:site_name" content="TID&#39;s Blog">
<meta property="og:description" content="之前的文章讲了构建裸交易的过程，但是上文直接构建裸交易是没有创建找零地址的，所以输入和输出的差值都会成为矿工的交易费。极容易造成高额的交易费，所以这篇文章在之前的基础上使用 fundrawtransaction 来创建具有找零地址的交易。">
<meta property="og:locale" content="zh_CN">
<meta property="article:published_time" content="2019-09-25T17:05:54.000Z">
<meta property="article:modified_time" content="2025-07-31T02:30:04.386Z">
<meta property="article:author" content="TigerInYourDream">
<meta property="article:tag" content="区块链">
<meta property="article:tag" content="比特币">
<meta property="article:tag" content="交易">
<meta property="article:tag" content="fundrawtransaction">
<meta name="twitter:card" content="summary">

<link rel="canonical" href="https://imzy.vip/posts/27102/">


<script id="page-configurations">
  // https://hexo.io/docs/variables.html
  CONFIG.page = {
    sidebar: "",
    isHome : false,
    isPost : true,
    lang   : 'zh-CN'
  };
</script>

  <title>创建具有找零地址的交易 | TID's Blog</title>
  






  <noscript>
  <style>
  .use-motion .brand,
  .use-motion .menu-item,
  .sidebar-inner,
  .use-motion .post-block,
  .use-motion .pagination,
  .use-motion .comments,
  .use-motion .post-header,
  .use-motion .post-body,
  .use-motion .collection-header { opacity: initial; }

  .use-motion .site-title,
  .use-motion .site-subtitle {
    opacity: initial;
    top: initial;
  }

  .use-motion .logo-line-before i { left: initial; }
  .use-motion .logo-line-after i { right: initial; }
  </style>
</noscript>

</head>

<body itemscope itemtype="http://schema.org/WebPage">
  <div class="container use-motion">
    <div class="headband"></div>

    <header class="header" itemscope itemtype="http://schema.org/WPHeader">
      <div class="header-inner"><div class="site-brand-container">
  <div class="site-nav-toggle">
    <div class="toggle" aria-label="切换导航栏">
      <span class="toggle-line toggle-line-first"></span>
      <span class="toggle-line toggle-line-middle"></span>
      <span class="toggle-line toggle-line-last"></span>
    </div>
  </div>

  <div class="site-meta">

    <a href="/" class="brand" rel="start">
      <span class="logo-line-before"><i></i></span>
      <h1 class="site-title">TID's Blog</h1>
      <span class="logo-line-after"><i></i></span>
    </a>
  </div>

  <div class="site-nav-right">
    <div class="toggle popup-trigger">
    </div>
  </div>
</div>




<nav class="site-nav">
  <ul id="menu" class="main-menu menu">
        <li class="menu-item menu-item-home">

    <a href="/" rel="section"><i class="fa fa-home fa-fw"></i>首页</a>

  </li>
        <li class="menu-item menu-item-tags">

    <a href="/tags/" rel="section"><i class="fa fa-tags fa-fw"></i>标签</a>

  </li>
        <li class="menu-item menu-item-categories">

    <a href="/categories/" rel="section"><i class="fa fa-th fa-fw"></i>分类</a>

  </li>
        <li class="menu-item menu-item-archives">

    <a href="/archives/" rel="section"><i class="fa fa-archive fa-fw"></i>归档</a>

  </li>
        <li class="menu-item menu-item-一言">

    <a href="/motto" rel="section"><i class="fa fa-camera fa-fw"></i>一言</a>

  </li>
        <li class="menu-item menu-item-友链">

    <a href="/friends" rel="section"><i class="fa fa-american-sign-language-interpreting fa-fw"></i>友链</a>

  </li>
  </ul>
</nav>




</div>
    </header>

    
  <div class="back-to-top">
    <i class="fa fa-arrow-up"></i>
    <span>0%</span>
  </div>


    <main class="main">
      <div class="main-inner">
        <div class="content-wrap">
          

          <div class="content post posts-expand">
            

    
  
  
  <article itemscope itemtype="http://schema.org/Article" class="post-block" lang="zh-CN">
    <link itemprop="mainEntityOfPage" href="https://imzy.vip/posts/27102/">

    <span hidden itemprop="author" itemscope itemtype="http://schema.org/Person">
      <meta itemprop="image" content="/images/avatar.jpg">
      <meta itemprop="name" content="TigerInYourDream">
      <meta itemprop="description" content="每一篇文章都是一种进步，每一句感慨都是一次思考">
    </span>

    <span hidden itemprop="publisher" itemscope itemtype="http://schema.org/Organization">
      <meta itemprop="name" content="TID's Blog">
    </span>
      <header class="post-header">
        <h1 class="post-title" itemprop="name headline">
          创建具有找零地址的交易
        </h1>

        <div class="post-meta">
            <span class="post-meta-item">
              <span class="post-meta-item-icon">
                <i class="far fa-calendar"></i>
              </span>
              <span class="post-meta-item-text">发表于</span>

              <time title="创建时间：2019-09-25 17:05:54" itemprop="dateCreated datePublished" datetime="2019-09-25T17:05:54+00:00">2019-09-25</time>
            </span>
              <span class="post-meta-item">
                <span class="post-meta-item-icon">
                  <i class="far fa-calendar-check"></i>
                </span>
                <span class="post-meta-item-text">更新于</span>
                <time title="修改时间：2025-07-31 02:30:04" itemprop="dateModified" datetime="2025-07-31T02:30:04+00:00">2025-07-31</time>
              </span>
            <span class="post-meta-item">
              <span class="post-meta-item-icon">
                <i class="far fa-folder"></i>
              </span>
              <span class="post-meta-item-text">分类于</span>
                <span itemprop="about" itemscope itemtype="http://schema.org/Thing">
                  <a href="/categories/%E6%8A%80%E6%9C%AF%E7%AC%94%E8%AE%B0/" itemprop="url" rel="index"><span itemprop="name">技术笔记</span></a>
                </span>
            </span>

          <br>
            <span class="post-meta-item" title="本文字数">
              <span class="post-meta-item-icon">
                <i class="far fa-file-word"></i>
              </span>
                <span class="post-meta-item-text">本文字数：</span>
              <span>8.9k</span>
            </span>
            <span class="post-meta-item" title="阅读时长">
              <span class="post-meta-item-icon">
                <i class="far fa-clock"></i>
              </span>
                <span class="post-meta-item-text">阅读时长 &asymp;</span>
              <span>8 分钟</span>
            </span>

        </div>
      </header>

    
    
    
    <div class="post-body" itemprop="articleBody">

      
        <p>之前的文章讲了构建裸交易的过程，但是上文直接构建裸交易是没有创建找零地址的，所以输入和输出的差值都会成为矿工的交易费。极容易造成高额的交易费，所以这篇文章在之前的基础上使用 fundrawtransaction 来创建具有找零地址的交易。</p>
<a id="more"></a>

<p>先列出主干</p>
<blockquote>
<ol>
<li>创建一笔<strong>没有输入的交易</strong></li>
<li>添加充足的未签名的的交易来满足交易需求</li>
<li>签名</li>
<li>广播</li>
</ol>
</blockquote>
<p>具体过程</p>
<figure class="highlight shell"><table><tr><td class="gutter"><pre><span class="line">1</span><br><span class="line">2</span><br><span class="line">3</span><br><span class="line">4</span><br><span class="line">5</span><br><span class="line">6</span><br><span class="line">7</span><br><span class="line">8</span><br><span class="line">9</span><br><span class="line">10</span><br><span class="line">11</span><br><span class="line">12</span><br><span class="line">13</span><br><span class="line">14</span><br><span class="line">15</span><br><span class="line">16</span><br><span class="line">17</span><br><span class="line">18</span><br><span class="line">19</span><br><span class="line">20</span><br><span class="line">21</span><br><span class="line">22</span><br><span class="line">23</span><br><span class="line">24</span><br><span class="line">25</span><br><span class="line">26</span><br><span class="line">27</span><br><span class="line">28</span><br><span class="line">29</span><br><span class="line">30</span><br><span class="line">31</span><br><span class="line">32</span><br><span class="line">33</span><br><span class="line">34</span><br><span class="line">35</span><br><span class="line">36</span><br><span class="line">37</span><br><span class="line">38</span><br><span class="line">39</span><br><span class="line">40</span><br><span class="line">41</span><br><span class="line">42</span><br><span class="line">43</span><br><span class="line">44</span><br><span class="line">45</span><br><span class="line">46</span><br><span class="line">47</span><br><span class="line">48</span><br><span class="line">49</span><br><span class="line">50</span><br><span class="line">51</span><br><span class="line">52</span><br><span class="line">53</span><br><span class="line">54</span><br><span class="line">55</span><br><span class="line">56</span><br><span class="line">57</span><br><span class="line">58</span><br><span class="line">59</span><br><span class="line">60</span><br><span class="line">61</span><br><span class="line">62</span><br><span class="line">63</span><br><span class="line">64</span><br><span class="line">65</span><br><span class="line">66</span><br><span class="line">67</span><br><span class="line">68</span><br><span class="line">69</span><br><span class="line">70</span><br><span class="line">71</span><br><span class="line">72</span><br><span class="line">73</span><br><span class="line">74</span><br><span class="line">75</span><br><span class="line">76</span><br><span class="line">77</span><br><span class="line">78</span><br><span class="line">79</span><br><span class="line">80</span><br><span class="line">81</span><br><span class="line">82</span><br><span class="line">83</span><br><span class="line">84</span><br><span class="line">85</span><br><span class="line">86</span><br><span class="line">87</span><br><span class="line">88</span><br><span class="line">89</span><br><span class="line">90</span><br><span class="line">91</span><br><span class="line">92</span><br><span class="line">93</span><br><span class="line">94</span><br><span class="line">95</span><br><span class="line">96</span><br><span class="line">97</span><br><span class="line">98</span><br><span class="line">99</span><br><span class="line">100</span><br><span class="line">101</span><br><span class="line">102</span><br><span class="line">103</span><br><span class="line">104</span><br><span class="line">105</span><br><span class="line">106</span><br><span class="line">107</span><br><span class="line">108</span><br><span class="line">109</span><br><span class="line">110</span><br><span class="line">111</span><br><span class="line">112</span><br><span class="line">113</span><br><span class="line">114</span><br><span class="line">115</span><br><span class="line">116</span><br><span class="line">117</span><br><span class="line">118</span><br><span class="line">119</span><br><span class="line">120</span><br><span class="line">121</span><br><span class="line">122</span><br><span class="line">123</span><br><span class="line">124</span><br><span class="line">125</span><br><span class="line">126</span><br><span class="line">127</span><br><span class="line">128</span><br><span class="line">129</span><br><span class="line">130</span><br><span class="line">131</span><br><span class="line">132</span><br><span class="line">133</span><br><span class="line">134</span><br><span class="line">135</span><br><span class="line">136</span><br><span class="line">137</span><br><span class="line">138</span><br><span class="line">139</span><br><span class="line">140</span><br><span class="line">141</span><br><span class="line">142</span><br><span class="line">143</span><br><span class="line">144</span><br><span class="line">145</span><br><span class="line">146</span><br><span class="line">147</span><br><span class="line">148</span><br><span class="line">149</span><br><span class="line">150</span><br><span class="line">151</span><br><span class="line">152</span><br><span class="line">153</span><br><span class="line">154</span><br><span class="line">155</span><br><span class="line">156</span><br><span class="line">157</span><br><span class="line">158</span><br><span class="line">159</span><br><span class="line">160</span><br><span class="line">161</span><br><span class="line">162</span><br><span class="line">163</span><br><span class="line">164</span><br><span class="line">165</span><br><span class="line">166</span><br><span class="line">167</span><br><span class="line">168</span><br><span class="line">169</span><br><span class="line">170</span><br><span class="line">171</span><br><span class="line">172</span><br><span class="line">173</span><br><span class="line">174</span><br><span class="line">175</span><br><span class="line">176</span><br><span class="line">177</span><br><span class="line">178</span><br><span class="line">179</span><br><span class="line">180</span><br><span class="line">181</span><br><span class="line">182</span><br><span class="line">183</span><br><span class="line">184</span><br><span class="line">185</span><br><span class="line">186</span><br><span class="line">187</span><br><span class="line">188</span><br><span class="line">189</span><br><span class="line">190</span><br><span class="line">191</span><br><span class="line">192</span><br><span class="line">193</span><br><span class="line">194</span><br><span class="line">195</span><br><span class="line">196</span><br><span class="line">197</span><br><span class="line">198</span><br><span class="line">199</span><br><span class="line">200</span><br><span class="line">201</span><br><span class="line">202</span><br></pre></td><td class="code"><pre><span class="line">// 启动私链</span><br><span class="line">1. bitcoind -printtoconsole -regtest // 其余参数全部参照原来的设计,其余几个项目都去 .bitcoin/bitcoin.conf 下去掉</span><br><span class="line"></span><br><span class="line">////先测试私链起来了没有</span><br><span class="line">2. bitcoin-cli -regtest  -getinfo</span><br><span class="line"></span><br><span class="line">//在查询一下</span><br><span class="line">3. bitcoin-cli -regtest getbestblockhash</span><br><span class="line"></span><br><span class="line">//查询当前用户信息 不出所料的话都应该没有币的</span><br><span class="line">4. bitcoin-cli -regtest getbalance</span><br><span class="line"></span><br><span class="line">//生成一个地址作为初始地址 2N9nBBNFP4BFFZWzvQTwQKF96RxidHx4p8K</span><br><span class="line">5. bitcoin-cli -regtest  getnewaddress</span><br><span class="line"></span><br><span class="line">//验证一下这个地址</span><br><span class="line">6. bitcoin-cli -regtest validateaddress 2N9nBBNFP4BFFZWzvQTwQKF96RxidHx4p8K</span><br><span class="line"></span><br><span class="line">// 输出</span><br><span class="line">&#123;</span><br><span class="line">  &quot;isvalid&quot;: true,</span><br><span class="line">  &quot;address&quot;: &quot;2N9nBBNFP4BFFZWzvQTwQKF96RxidHx4p8K&quot;,</span><br><span class="line">  &quot;scriptPubKey&quot;: &quot;a914b55c9006466ed8bad87d9f7af0aed405764eb0a887&quot;,</span><br><span class="line">  &quot;isscript&quot;: true,</span><br><span class="line">  &quot;iswitness&quot;: false</span><br><span class="line">&#125;</span><br><span class="line"></span><br><span class="line">//尝试导出这个私钥  cQUSPugSndqrg9UkVKvgeowJpptyyxHFEE5TcstjJnw8NzeUKPCg</span><br><span class="line">7. bitcoin-cli -regtest dumpprivkey 2N9nBBNFP4BFFZWzvQTwQKF96RxidHx4p8K</span><br><span class="line"></span><br><span class="line">//开始挖矿 注意这里的 api 发生了变化 以前是直接generate 现在推荐下面的方法 直接100个区块到之前生成的地址上</span><br><span class="line">8. bitcoin-cli -regtest generatetoaddress 101 2N9nBBNFP4BFFZWzvQTwQKF96RxidHx4p8K</span><br><span class="line"></span><br><span class="line">//接下来 获取当前账户下的信息   确认一百个块 得到50个比特币</span><br><span class="line">9. bitcoin-cli -regtest getbalance</span><br><span class="line"></span><br><span class="line">//再生成第二个地址 用于接受转账  2NByxgfmQxVuQXB16GY1J2ru6RGfNEdgPk3</span><br><span class="line">10. bitcoin-cli -regtest getnewaddress</span><br><span class="line"></span><br><span class="line">//先创建一笔没有输入的交易 转账给我们的目标地址35个比特币  02000000000100c39dd00000000017a914cd876025d3d13aa7ed999128d40100a9f26a65ea8700000000</span><br><span class="line">11. bitcoin-cli -regtest createrawtransaction &#x27;[]&#x27; &#x27;&#123;&quot;2NByxgfmQxVuQXB16GY1J2ru6RGfNEdgPk3&quot;:35&#125;&#x27;</span><br><span class="line"></span><br><span class="line">//接下来decode </span><br><span class="line">12. bitcoin-cli -regtest decoderawtransaction 02000000000100c39dd00000000017a914cd876025d3d13aa7ed999128d40100a9f26a65ea8700000000</span><br><span class="line"></span><br><span class="line">输出</span><br><span class="line"></span><br><span class="line">&#123;</span><br><span class="line">  &quot;txid&quot;: &quot;776b54a0b65d3af5fd13ab4d947ab72e563ba7a2aa43cd37ebdd820dc50ec9ca&quot;,</span><br><span class="line">  &quot;hash&quot;: &quot;776b54a0b65d3af5fd13ab4d947ab72e563ba7a2aa43cd37ebdd820dc50ec9ca&quot;,</span><br><span class="line">  &quot;version&quot;: 2,</span><br><span class="line">  &quot;size&quot;: 42,</span><br><span class="line">  &quot;vsize&quot;: 42,</span><br><span class="line">  &quot;weight&quot;: 168,</span><br><span class="line">  &quot;locktime&quot;: 0,</span><br><span class="line">  &quot;vin&quot;: [</span><br><span class="line">  ],</span><br><span class="line">  &quot;vout&quot;: [</span><br><span class="line">    &#123;</span><br><span class="line">      &quot;value&quot;: 35.00000000,</span><br><span class="line">      &quot;n&quot;: 0,</span><br><span class="line">      &quot;scriptPubKey&quot;: &#123;</span><br><span class="line">        &quot;asm&quot;: &quot;OP_HASH160 cd876025d3d13aa7ed999128d40100a9f26a65ea OP_EQUAL&quot;,</span><br><span class="line">        &quot;hex&quot;: &quot;a914cd876025d3d13aa7ed999128d40100a9f26a65ea87&quot;,</span><br><span class="line">        &quot;reqSigs&quot;: 1,</span><br><span class="line">        &quot;type&quot;: &quot;scripthash&quot;,</span><br><span class="line">        &quot;addresses&quot;: [</span><br><span class="line">          &quot;2NByxgfmQxVuQXB16GY1J2ru6RGfNEdgPk3&quot;</span><br><span class="line">        ]</span><br><span class="line">      &#125;</span><br><span class="line">    &#125;</span><br><span class="line">  ]</span><br><span class="line">&#125;</span><br><span class="line"></span><br><span class="line">//使用 fundrawtransaction 计算出交易费  输入为刚才得到的 raw transaction 02000000000100c39dd00000000017a914cd876025d3d13aa7ed999128d40100a9f26a65ea8700000000 </span><br><span class="line">13. bitcoin-cli -regtest fundrawtransaction 02000000000100c39dd00000000017a914cd876025d3d13aa7ed999128d40100a9f26a65ea8700000000</span><br><span class="line">&#123;</span><br><span class="line">  &quot;hex&quot;: &quot;02000000019e667f70450d80e036c5763b4ece68479a047a67efcf483f8bf2e56c50ca5f140000000000feffffff02082268590000000017a914ebec149b57c6c84ab9a5302dae8150369d9c51fd8700c39dd00000000017a914cd876025d3d13aa7ed999128d40100a9f26a65ea8700000000&quot;,</span><br><span class="line">  &quot;fee&quot;: 0.00003320,</span><br><span class="line">  &quot;changepos&quot;: 0</span><br><span class="line">&#125;</span><br><span class="line"></span><br><span class="line">// decoderawtransaction </span><br><span class="line">14. bitcoin-cli -regtest decoderawtransaction 02000000019e667f70450d80e036c5763b4ece68479a047a67efcf483f8bf2e56c50ca5f140000000000feffffff02082268590000000017a914ebec149b57c6c84ab9a5302dae8150369d9c51fd8700c39dd00000000017a914cd876025d3d13aa7ed999128d40100a9f26a65ea8700000000</span><br><span class="line"></span><br><span class="line">&#123;</span><br><span class="line">  &quot;txid&quot;: &quot;704bd8b218ab5dc934a6388f139659f0626a93af1d77814d34a8123590641500&quot;,</span><br><span class="line">  &quot;hash&quot;: &quot;704bd8b218ab5dc934a6388f139659f0626a93af1d77814d34a8123590641500&quot;,</span><br><span class="line">  &quot;version&quot;: 2,</span><br><span class="line">  &quot;size&quot;: 115,</span><br><span class="line">  &quot;vsize&quot;: 115,</span><br><span class="line">  &quot;weight&quot;: 460,</span><br><span class="line">  &quot;locktime&quot;: 0,</span><br><span class="line">  &quot;vin&quot;: [</span><br><span class="line">    &#123;</span><br><span class="line">      &quot;txid&quot;: &quot;145fca506ce5f28b3f48cfef677a049a4768ce4e3b76c536e0800d45707f669e&quot;,</span><br><span class="line">      &quot;vout&quot;: 0,</span><br><span class="line">      &quot;scriptSig&quot;: &#123;</span><br><span class="line">        &quot;asm&quot;: &quot;&quot;,</span><br><span class="line">        &quot;hex&quot;: &quot;&quot;</span><br><span class="line">      &#125;,</span><br><span class="line">      &quot;sequence&quot;: 4294967294</span><br><span class="line">    &#125;</span><br><span class="line">  ],</span><br><span class="line">  &quot;vout&quot;: [</span><br><span class="line">    &#123;</span><br><span class="line">      &quot;value&quot;: 14.99996680,</span><br><span class="line">      &quot;n&quot;: 0,</span><br><span class="line">      &quot;scriptPubKey&quot;: &#123;</span><br><span class="line">        &quot;asm&quot;: &quot;OP_HASH160 ebec149b57c6c84ab9a5302dae8150369d9c51fd OP_EQUAL&quot;,</span><br><span class="line">        &quot;hex&quot;: &quot;a914ebec149b57c6c84ab9a5302dae8150369d9c51fd87&quot;,</span><br><span class="line">        &quot;reqSigs&quot;: 1,</span><br><span class="line">        &quot;type&quot;: &quot;scripthash&quot;,</span><br><span class="line">        &quot;addresses&quot;: [</span><br><span class="line">          &quot;2NEkfbXNcp3iQtQjh4RemfTGeGQ6S8uX5kC&quot;</span><br><span class="line">        ]</span><br><span class="line">      &#125;</span><br><span class="line">    &#125;,</span><br><span class="line">    &#123;</span><br><span class="line">      &quot;value&quot;: 35.00000000,</span><br><span class="line">      &quot;n&quot;: 1,</span><br><span class="line">      &quot;scriptPubKey&quot;: &#123;</span><br><span class="line">        &quot;asm&quot;: &quot;OP_HASH160 cd876025d3d13aa7ed999128d40100a9f26a65ea OP_EQUAL&quot;,</span><br><span class="line">        &quot;hex&quot;: &quot;a914cd876025d3d13aa7ed999128d40100a9f26a65ea87&quot;,</span><br><span class="line">        &quot;reqSigs&quot;: 1,</span><br><span class="line">        &quot;type&quot;: &quot;scripthash&quot;,</span><br><span class="line">        &quot;addresses&quot;: [</span><br><span class="line">          &quot;2NByxgfmQxVuQXB16GY1J2ru6RGfNEdgPk3&quot;</span><br><span class="line">        ]</span><br><span class="line">      &#125;</span><br><span class="line">    &#125;</span><br><span class="line">  ]</span><br><span class="line">&#125;</span><br><span class="line"></span><br><span class="line">// 利用钱包的功能对这次交易进行签名</span><br><span class="line">15. bitcoin-cli -regtest signrawtransactionwithwallet 02000000019e667f70450d80e036c5763b4ece68479a047a67efcf483f8bf2e56c50ca5f140000000000feffffff02082268590000000017a914ebec149b57c6c84ab9a5302dae8150369d9c51fd8700c39dd00000000017a914cd876025d3d13aa7ed999128d40100a9f26a65ea8700000000</span><br><span class="line"></span><br><span class="line">&#123;</span><br><span class="line">  &quot;hex&quot;: &quot;020000000001019e667f70450d80e036c5763b4ece68479a047a67efcf483f8bf2e56c50ca5f1400000000171600145ffd0df9539eaf3036a524bf7c41ed5864cc2334feffffff02082268590000000017a914ebec149b57c6c84ab9a5302dae8150369d9c51fd8700c39dd00000000017a914cd876025d3d13aa7ed999128d40100a9f26a65ea8702473044022054074aff080169dc692cb1952eb97205f7c1b7b4a2f14903ee270271fcc9b19102205fdafcafbbb466350e48d891498c1244238866bf17ac11515a1cc4b796fbfdaa0121034824cd575c0c7474fbb49c255ad81892f673f68c2025f5bacfc60bbec910b1ac00000000&quot;,</span><br><span class="line">  &quot;complete&quot;: true</span><br><span class="line">&#125;</span><br><span class="line"></span><br><span class="line">// 广播  668911f8a41113ffdbf65fd326e20c107dfd62cf3cc86959444f55be94ab78d7</span><br><span class="line">16. bitcoin-cli -regtest sendrawtransaction 020000000001019e667f70450d80e036c5763b4ece68479a047a67efcf483f8bf2e56c50ca5f1400000000171600145ffd0df9539eaf3036a524bf7c41ed5864cc2334feffffff02082268590000000017a914ebec149b57c6c84ab9a5302dae8150369d9c51fd8700c39dd00000000017a914cd876025d3d13aa7ed999128d40100a9f26a65ea8702473044022054074aff080169dc692cb1952eb97205f7c1b7b4a2f14903ee270271fcc9b19102205fdafcafbbb466350e48d891498c1244238866bf17ac11515a1cc4b796fbfdaa0121034824cd575c0c7474fbb49c255ad81892f673f68c2025f5bacfc60bbec910b1ac00000000</span><br><span class="line"></span><br><span class="line">//可以查看一下 </span><br><span class="line">17. bitcoin-cli -regtest getrawtransaction 668911f8a41113ffdbf65fd326e20c107dfd62cf3cc86959444f55be94ab78d7 1</span><br><span class="line"></span><br><span class="line">输出</span><br><span class="line">&#123;</span><br><span class="line">  &quot;txid&quot;: &quot;668911f8a41113ffdbf65fd326e20c107dfd62cf3cc86959444f55be94ab78d7&quot;,</span><br><span class="line">  &quot;hash&quot;: &quot;53171009d8f8984d72276e6f4f19bad12476d272ba6728e8323a2bb3756c77ac&quot;,</span><br><span class="line">  &quot;version&quot;: 2,</span><br><span class="line">  &quot;size&quot;: 247,</span><br><span class="line">  &quot;vsize&quot;: 166,</span><br><span class="line">  &quot;weight&quot;: 661,</span><br><span class="line">  &quot;locktime&quot;: 0,</span><br><span class="line">  &quot;vin&quot;: [</span><br><span class="line">    &#123;</span><br><span class="line">      &quot;txid&quot;: &quot;145fca506ce5f28b3f48cfef677a049a4768ce4e3b76c536e0800d45707f669e&quot;,</span><br><span class="line">      &quot;vout&quot;: 0,</span><br><span class="line">      &quot;scriptSig&quot;: &#123;</span><br><span class="line">        &quot;asm&quot;: &quot;00145ffd0df9539eaf3036a524bf7c41ed5864cc2334&quot;,</span><br><span class="line">        &quot;hex&quot;: &quot;1600145ffd0df9539eaf3036a524bf7c41ed5864cc2334&quot;</span><br><span class="line">      &#125;,</span><br><span class="line">      &quot;txinwitness&quot;: [</span><br><span class="line">        &quot;3044022054074aff080169dc692cb1952eb97205f7c1b7b4a2f14903ee270271fcc9b19102205fdafcafbbb466350e48d891498c1244238866bf17ac11515a1cc4b796fbfdaa01&quot;,</span><br><span class="line">        &quot;034824cd575c0c7474fbb49c255ad81892f673f68c2025f5bacfc60bbec910b1ac&quot;</span><br><span class="line">      ],</span><br><span class="line">      &quot;sequence&quot;: 4294967294</span><br><span class="line">    &#125;</span><br><span class="line">  ],</span><br><span class="line">  &quot;vout&quot;: [</span><br><span class="line">    &#123;</span><br><span class="line">      &quot;value&quot;: 14.99996680,</span><br><span class="line">      &quot;n&quot;: 0,</span><br><span class="line">      &quot;scriptPubKey&quot;: &#123;</span><br><span class="line">        &quot;asm&quot;: &quot;OP_HASH160 ebec149b57c6c84ab9a5302dae8150369d9c51fd OP_EQUAL&quot;,</span><br><span class="line">        &quot;hex&quot;: &quot;a914ebec149b57c6c84ab9a5302dae8150369d9c51fd87&quot;,</span><br><span class="line">        &quot;reqSigs&quot;: 1,</span><br><span class="line">        &quot;type&quot;: &quot;scripthash&quot;,</span><br><span class="line">        &quot;addresses&quot;: [</span><br><span class="line">          &quot;2NEkfbXNcp3iQtQjh4RemfTGeGQ6S8uX5kC&quot;</span><br><span class="line">        ]</span><br><span class="line">      &#125;</span><br><span class="line">    &#125;,</span><br><span class="line">    &#123;</span><br><span class="line">      &quot;value&quot;: 35.00000000,</span><br><span class="line">      &quot;n&quot;: 1,</span><br><span class="line">      &quot;scriptPubKey&quot;: &#123;</span><br><span class="line">        &quot;asm&quot;: &quot;OP_HASH160 cd876025d3d13aa7ed999128d40100a9f26a65ea OP_EQUAL&quot;,</span><br><span class="line">        &quot;hex&quot;: &quot;a914cd876025d3d13aa7ed999128d40100a9f26a65ea87&quot;,</span><br><span class="line">        &quot;reqSigs&quot;: 1,</span><br><span class="line">        &quot;type&quot;: &quot;scripthash&quot;,</span><br><span class="line">        &quot;addresses&quot;: [</span><br><span class="line">          &quot;2NByxgfmQxVuQXB16GY1J2ru6RGfNEdgPk3&quot;</span><br><span class="line">        ]</span><br><span class="line">      &#125;</span><br><span class="line">    &#125;</span><br><span class="line">  ],</span><br><span class="line">  &quot;hex&quot;: &quot;020000000001019e667f70450d80e036c5763b4ece68479a047a67efcf483f8bf2e56c50ca5f1400000000171600145ffd0df9539eaf3036a524bf7c41ed5864cc2334feffffff02082268590000000017a914ebec149b57c6c84ab9a5302dae8150369d9c51fd8700c39dd00000000017a914cd876025d3d13aa7ed999128d40100a9f26a65ea8702473044022054074aff080169dc692cb1952eb97205f7c1b7b4a2f14903ee270271fcc9b19102205fdafcafbbb466350e48d891498c1244238866bf17ac11515a1cc4b796fbfdaa0121034824cd575c0c7474fbb49c255ad81892f673f68c2025f5bacfc60bbec910b1ac00000000&quot;</span><br><span class="line">&#125;</span><br></pre></td></tr></table></figure>


    </div>

    
    
    

      <footer class="post-footer">
          <div class="post-tags">
              <a href="/tags/%E5%8C%BA%E5%9D%97%E9%93%BE/" rel="tag"># 区块链</a>
              <a href="/tags/%E6%AF%94%E7%89%B9%E5%B8%81/" rel="tag"># 比特币</a>
              <a href="/tags/%E4%BA%A4%E6%98%93/" rel="tag"># 交易</a>
              <a href="/tags/fundrawtransaction/" rel="tag"># fundrawtransaction</a>
          </div>

        


        
    <div class="post-nav">
      <div class="post-nav-item">
    <a href="/posts/60903/" rel="prev" title="使用比特币节点进行交易">
      <i class="fa fa-chevron-left"></i> 使用比特币节点进行交易
    </a></div>
      <div class="post-nav-item">
    <a href="/posts/34596/" rel="next" title="构建复杂交易">
      构建复杂交易 <i class="fa fa-chevron-right"></i>
    </a></div>
    </div>
      </footer>
    
  </article>
  
  
  



          </div>
          

<script>
  window.addEventListener('tabs:register', () => {
    let { activeClass } = CONFIG.comments;
    if (CONFIG.comments.storage) {
      activeClass = localStorage.getItem('comments_active') || activeClass;
    }
    if (activeClass) {
      let activeTab = document.querySelector(`a[href="#comment-${activeClass}"]`);
      if (activeTab) {
        activeTab.click();
      }
    }
  });
  if (CONFIG.comments.storage) {
    window.addEventListener('tabs:click', event => {
      if (!event.target.matches('.tabs-comment .tab-content .tab-pane')) return;
      let commentClass = event.target.classList[1];
      localStorage.setItem('comments_active', commentClass);
    });
  }
</script>

        </div>
          
  
  <div class="toggle sidebar-toggle">
    <span class="toggle-line toggle-line-first"></span>
    <span class="toggle-line toggle-line-middle"></span>
    <span class="toggle-line toggle-line-last"></span>
  </div>

  <aside class="sidebar">
    <div class="sidebar-inner">

      <ul class="sidebar-nav motion-element">
        <li class="sidebar-nav-toc">
          文章目录
        </li>
        <li class="sidebar-nav-overview">
          站点概览
        </li>
      </ul>

      <!--noindex-->
      <div class="post-toc-wrap sidebar-panel">
      </div>
      <!--/noindex-->

      <div class="site-overview-wrap sidebar-panel">
        <div class="site-author motion-element" itemprop="author" itemscope itemtype="http://schema.org/Person">
    <img class="site-author-image" itemprop="image" alt="TigerInYourDream"
      src="/images/avatar.jpg">
  <p class="site-author-name" itemprop="name">TigerInYourDream</p>
  <div class="site-description" itemprop="description">每一篇文章都是一种进步，每一句感慨都是一次思考</div>
</div>
<div class="site-state-wrap motion-element">
  <nav class="site-state">
      <div class="site-state-item site-state-posts">
          <a href="/archives/">
        
          <span class="site-state-item-count">49</span>
          <span class="site-state-item-name">日志</span>
        </a>
      </div>
      <div class="site-state-item site-state-categories">
            <a href="/categories/">
          
        <span class="site-state-item-count">10</span>
        <span class="site-state-item-name">分类</span></a>
      </div>
      <div class="site-state-item site-state-tags">
            <a href="/tags/">
          
        <span class="site-state-item-count">52</span>
        <span class="site-state-item-name">标签</span></a>
      </div>
  </nav>
</div>



      </div>

    </div>
  </aside>
  <div id="sidebar-dimmer"></div>


      </div>
    </main>

    <footer class="footer">
      <div class="footer-inner">
        

        

<div class="copyright">
  
  &copy; 
  <span itemprop="copyrightYear">2025</span>
  <span class="with-love">
    <i class="fa fa-heart"></i>
  </span>
  <span class="author" itemprop="copyrightHolder">TigerInYourDream</span>
    <span class="post-meta-divider">|</span>
    <span class="post-meta-item-icon">
      <i class="fa fa-chart-area"></i>
    </span>
    <span title="站点总字数">163k</span>
    <span class="post-meta-divider">|</span>
    <span class="post-meta-item-icon">
      <i class="fa fa-coffee"></i>
    </span>
    <span title="站点阅读时长">2:28</span>
</div>
  <div class="powered-by">由 <a href="https://hexo.io/" class="theme-link" rel="noopener" target="_blank">Hexo</a> & <a href="https://theme-next.org/" class="theme-link" rel="noopener" target="_blank">NexT.Gemini</a> 强力驱动
  </div>

        








      </div>
    </footer>
  </div>

  
  <script src="/lib/anime.min.js"></script>
  <script src="/lib/velocity/velocity.min.js"></script>
  <script src="/lib/velocity/velocity.ui.min.js"></script>

<script src="/js/utils.js"></script>

<script src="/js/motion.js"></script>


<script src="/js/schemes/pisces.js"></script>


<script src="/js/next-boot.js"></script>




  















  

  

</body>
</html>
