<!DOCTYPE html>



  


<html class="theme-next muse use-motion" lang="zh-Hans">
<head><meta name="generator" content="Hexo 3.9.0">
  <meta charset="UTF-8">
<meta http-equiv="X-UA-Compatible" content="IE=edge">
<meta name="viewport" content="width=device-width, initial-scale=1, maximum-scale=1">
<meta name="theme-color" content="#222">









<meta http-equiv="Cache-Control" content="no-transform">
<meta http-equiv="Cache-Control" content="no-siteapp">
















  
  
  <link href="/lib/fancybox/source/jquery.fancybox.css?v=2.1.5" rel="stylesheet" type="text/css">







<link href="/lib/font-awesome/css/font-awesome.min.css?v=4.6.2" rel="stylesheet" type="text/css">

<link href="/css/main.css?v=5.1.4" rel="stylesheet" type="text/css">


  <link rel="apple-touch-icon" sizes="180x180" href="/images/apple-touch-icon-next.png?v=5.1.4">


  <link rel="icon" type="image/png" sizes="32x32" href="/images/favicon-32x32-next.png?v=5.1.4">


  <link rel="icon" type="image/png" sizes="16x16" href="/images/favicon-16x16-next.png?v=5.1.4">


  <link rel="mask-icon" href="/images/logo.svg?v=5.1.4" color="#222">





  <meta name="keywords" content="区块链,比特币,交易,fundrawtransaction,">










<meta name="description" content="之前的文章讲了构建裸交易的过程，但是上文直接构建裸交易是没有创建找零地址的，所以输入和输出的差值都会成为矿工的交易费。极容易造成高额的交易费，所以这篇文章在之前的基础上使用 fundrawtransaction 来创建具有找零地址的交易。 先列出主干   创建一笔没有输入的交易 添加充足的未签名的的交易来满足交易需求 签名 广播   具体过程 123456789101112131415161718">
<meta name="keywords" content="区块链,比特币,交易,fundrawtransaction">
<meta property="og:type" content="article">
<meta property="og:title" content="创建具有找零地址的交易">
<meta property="og:url" content="https://imzy.vip/posts/27102/index.html">
<meta property="og:site_name" content="TID&#39;s Blog">
<meta property="og:description" content="之前的文章讲了构建裸交易的过程，但是上文直接构建裸交易是没有创建找零地址的，所以输入和输出的差值都会成为矿工的交易费。极容易造成高额的交易费，所以这篇文章在之前的基础上使用 fundrawtransaction 来创建具有找零地址的交易。 先列出主干   创建一笔没有输入的交易 添加充足的未签名的的交易来满足交易需求 签名 广播   具体过程 123456789101112131415161718">
<meta property="og:locale" content="zh-Hans">
<meta property="og:updated_time" content="2019-09-25T09:47:30.291Z">
<meta name="twitter:card" content="summary">
<meta name="twitter:title" content="创建具有找零地址的交易">
<meta name="twitter:description" content="之前的文章讲了构建裸交易的过程，但是上文直接构建裸交易是没有创建找零地址的，所以输入和输出的差值都会成为矿工的交易费。极容易造成高额的交易费，所以这篇文章在之前的基础上使用 fundrawtransaction 来创建具有找零地址的交易。 先列出主干   创建一笔没有输入的交易 添加充足的未签名的的交易来满足交易需求 签名 广播   具体过程 123456789101112131415161718">



<script type="text/javascript" id="hexo.configurations">
  var NexT = window.NexT || {};
  var CONFIG = {
    root: '/',
    scheme: 'Muse',
    version: '5.1.4',
    sidebar: {"position":"left","display":"post","offset":12,"b2t":false,"scrollpercent":false,"onmobile":false},
    fancybox: true,
    tabs: true,
    motion: {"enable":true,"async":true,"transition":{"post_block":"fadeIn","post_header":"slideDownIn","post_body":"slideDownIn","coll_header":"slideLeftIn","sidebar":"slideUpIn"}},
    duoshuo: {
      userId: '0',
      author: '博主'
    },
    algolia: {
      applicationID: '',
      apiKey: '',
      indexName: '',
      hits: {"per_page":10},
      labels: {"input_placeholder":"Search for Posts","hits_empty":"We didn't find any results for the search: ${query}","hits_stats":"${hits} results found in ${time} ms"}
    }
  };
</script>



  <link rel="canonical" href="https://imzy.vip/posts/27102/">





  <title>创建具有找零地址的交易 | TID's Blog</title>
  








</head>

<body itemscope itemtype="http://schema.org/WebPage" lang="zh-Hans">

  
  
    
  

  <div class="container sidebar-position-left page-post-detail">
    <div class="headband"></div>

    <header id="header" class="header" itemscope itemtype="http://schema.org/WPHeader">
      <div class="header-inner"><div class="site-brand-wrapper">
  <div class="site-meta ">
    

    <div class="custom-logo-site-title">
      <a href="/" class="brand" rel="start">
        <span class="logo-line-before"><i></i></span>
        <span class="site-title">TID's Blog</span>
        <span class="logo-line-after"><i></i></span>
      </a>
    </div>
      
        <p class="site-subtitle"></p>
      
  </div>

  <div class="site-nav-toggle">
    <button>
      <span class="btn-bar"></span>
      <span class="btn-bar"></span>
      <span class="btn-bar"></span>
    </button>
  </div>
</div>

<nav class="site-nav">
  

  
    <ul id="menu" class="menu">
      
        
        <li class="menu-item menu-item-home">
          <a href="/" rel="section">
            
              <i class="menu-item-icon fa fa-fw fa-home"></i> <br>
            
            首页
          </a>
        </li>
      
        
        <li class="menu-item menu-item-tags">
          <a href="/tags/" rel="section">
            
              <i class="menu-item-icon fa fa-fw fa-tags"></i> <br>
            
            标签
          </a>
        </li>
      
        
        <li class="menu-item menu-item-categories">
          <a href="/categories/" rel="section">
            
              <i class="menu-item-icon fa fa-fw fa-th"></i> <br>
            
            分类
          </a>
        </li>
      
        
        <li class="menu-item menu-item-motto">
          <a href="/motto/" rel="section">
            
              <i class="menu-item-icon fa fa-fw fa-comment"></i> <br>
            
            一言
          </a>
        </li>
      
        
        <li class="menu-item menu-item-archives">
          <a href="/archives/" rel="section">
            
              <i class="menu-item-icon fa fa-fw fa-archive"></i> <br>
            
            归档
          </a>
        </li>
      

      
    </ul>
  

  
</nav>



 </div>
    </header>

    <main id="main" class="main">
      <div class="main-inner">
        <div class="content-wrap">
          <div id="content" class="content">
            

  <div id="posts" class="posts-expand">
    

  

  
  
  

  <article class="post post-type-normal" itemscope itemtype="http://schema.org/Article">
  
  
  
  <div class="post-block">
    <link itemprop="mainEntityOfPage" href="https://imzy.vip/posts/27102/">

    <span hidden itemprop="author" itemscope itemtype="http://schema.org/Person">
      <meta itemprop="name" content="TigerInYourDream">
      <meta itemprop="description" content>
      <meta itemprop="image" content="/uploads/avatar.jpg">
    </span>

    <span hidden itemprop="publisher" itemscope itemtype="http://schema.org/Organization">
      <meta itemprop="name" content="TID's Blog">
    </span>

    
      <header class="post-header">

        
        
          <h1 class="post-title" itemprop="name headline">创建具有找零地址的交易</h1>
        

        <div class="post-meta">
          <span class="post-time">
            
              <span class="post-meta-item-icon">
                <i class="fa fa-calendar-o"></i>
              </span>
              
                <span class="post-meta-item-text">发表于</span>
              
              <time title="创建于" itemprop="dateCreated datePublished" datetime="2019-09-25T17:05:54+08:00">
                2019-09-25
              </time>
            

            

            
          </span>

          
            <span class="post-category">
            
              <span class="post-meta-divider">|</span>
            
              <span class="post-meta-item-icon">
                <i class="fa fa-folder-o"></i>
              </span>
              
                <span class="post-meta-item-text">分类于</span>
              
              
                <span itemprop="about" itemscope itemtype="http://schema.org/Thing">
                  <a href="/categories/技术笔记/" itemprop="url" rel="index">
                    <span itemprop="name">技术笔记</span>
                  </a>
                </span>

                
                
              
            </span>
          

          
            
          

          
          

          

          

          

        </div>
      </header>
    

    
    
    
    <div class="post-body" itemprop="articleBody">

      
      

      
        <p>之前的文章讲了构建裸交易的过程，但是上文直接构建裸交易是没有创建找零地址的，所以输入和输出的差值都会成为矿工的交易费。极容易造成高额的交易费，所以这篇文章在之前的基础上使用 fundrawtransaction 来创建具有找零地址的交易。</p>
<p>先列出主干</p>
<blockquote>
<ol>
<li>创建一笔<strong>没有输入的交易</strong></li>
<li>添加充足的未签名的的交易来满足交易需求</li>
<li>签名</li>
<li>广播</li>
</ol>
</blockquote>
<p>具体过程</p>
<figure class="highlight shell"><table><tr><td class="gutter"><pre><span class="line">1</span><br><span class="line">2</span><br><span class="line">3</span><br><span class="line">4</span><br><span class="line">5</span><br><span class="line">6</span><br><span class="line">7</span><br><span class="line">8</span><br><span class="line">9</span><br><span class="line">10</span><br><span class="line">11</span><br><span class="line">12</span><br><span class="line">13</span><br><span class="line">14</span><br><span class="line">15</span><br><span class="line">16</span><br><span class="line">17</span><br><span class="line">18</span><br><span class="line">19</span><br><span class="line">20</span><br><span class="line">21</span><br><span class="line">22</span><br><span class="line">23</span><br><span class="line">24</span><br><span class="line">25</span><br><span class="line">26</span><br><span class="line">27</span><br><span class="line">28</span><br><span class="line">29</span><br><span class="line">30</span><br><span class="line">31</span><br><span class="line">32</span><br><span class="line">33</span><br><span class="line">34</span><br><span class="line">35</span><br><span class="line">36</span><br><span class="line">37</span><br><span class="line">38</span><br><span class="line">39</span><br><span class="line">40</span><br><span class="line">41</span><br><span class="line">42</span><br><span class="line">43</span><br><span class="line">44</span><br><span class="line">45</span><br><span class="line">46</span><br><span class="line">47</span><br><span class="line">48</span><br><span class="line">49</span><br><span class="line">50</span><br><span class="line">51</span><br><span class="line">52</span><br><span class="line">53</span><br><span class="line">54</span><br><span class="line">55</span><br><span class="line">56</span><br><span class="line">57</span><br><span class="line">58</span><br><span class="line">59</span><br><span class="line">60</span><br><span class="line">61</span><br><span class="line">62</span><br><span class="line">63</span><br><span class="line">64</span><br><span class="line">65</span><br><span class="line">66</span><br><span class="line">67</span><br><span class="line">68</span><br><span class="line">69</span><br><span class="line">70</span><br><span class="line">71</span><br><span class="line">72</span><br><span class="line">73</span><br><span class="line">74</span><br><span class="line">75</span><br><span class="line">76</span><br><span class="line">77</span><br><span class="line">78</span><br><span class="line">79</span><br><span class="line">80</span><br><span class="line">81</span><br><span class="line">82</span><br><span class="line">83</span><br><span class="line">84</span><br><span class="line">85</span><br><span class="line">86</span><br><span class="line">87</span><br><span class="line">88</span><br><span class="line">89</span><br><span class="line">90</span><br><span class="line">91</span><br><span class="line">92</span><br><span class="line">93</span><br><span class="line">94</span><br><span class="line">95</span><br><span class="line">96</span><br><span class="line">97</span><br><span class="line">98</span><br><span class="line">99</span><br><span class="line">100</span><br><span class="line">101</span><br><span class="line">102</span><br><span class="line">103</span><br><span class="line">104</span><br><span class="line">105</span><br><span class="line">106</span><br><span class="line">107</span><br><span class="line">108</span><br><span class="line">109</span><br><span class="line">110</span><br><span class="line">111</span><br><span class="line">112</span><br><span class="line">113</span><br><span class="line">114</span><br><span class="line">115</span><br><span class="line">116</span><br><span class="line">117</span><br><span class="line">118</span><br><span class="line">119</span><br><span class="line">120</span><br><span class="line">121</span><br><span class="line">122</span><br><span class="line">123</span><br><span class="line">124</span><br><span class="line">125</span><br><span class="line">126</span><br><span class="line">127</span><br><span class="line">128</span><br><span class="line">129</span><br><span class="line">130</span><br><span class="line">131</span><br><span class="line">132</span><br><span class="line">133</span><br><span class="line">134</span><br><span class="line">135</span><br><span class="line">136</span><br><span class="line">137</span><br><span class="line">138</span><br><span class="line">139</span><br><span class="line">140</span><br><span class="line">141</span><br><span class="line">142</span><br><span class="line">143</span><br><span class="line">144</span><br><span class="line">145</span><br><span class="line">146</span><br><span class="line">147</span><br><span class="line">148</span><br><span class="line">149</span><br><span class="line">150</span><br><span class="line">151</span><br><span class="line">152</span><br><span class="line">153</span><br><span class="line">154</span><br><span class="line">155</span><br><span class="line">156</span><br><span class="line">157</span><br><span class="line">158</span><br><span class="line">159</span><br><span class="line">160</span><br><span class="line">161</span><br><span class="line">162</span><br><span class="line">163</span><br><span class="line">164</span><br><span class="line">165</span><br><span class="line">166</span><br><span class="line">167</span><br><span class="line">168</span><br><span class="line">169</span><br><span class="line">170</span><br><span class="line">171</span><br><span class="line">172</span><br><span class="line">173</span><br><span class="line">174</span><br><span class="line">175</span><br><span class="line">176</span><br><span class="line">177</span><br><span class="line">178</span><br><span class="line">179</span><br><span class="line">180</span><br><span class="line">181</span><br><span class="line">182</span><br><span class="line">183</span><br><span class="line">184</span><br><span class="line">185</span><br><span class="line">186</span><br><span class="line">187</span><br><span class="line">188</span><br><span class="line">189</span><br><span class="line">190</span><br><span class="line">191</span><br><span class="line">192</span><br><span class="line">193</span><br><span class="line">194</span><br><span class="line">195</span><br><span class="line">196</span><br><span class="line">197</span><br><span class="line">198</span><br><span class="line">199</span><br><span class="line">200</span><br><span class="line">201</span><br><span class="line">202</span><br></pre></td><td class="code"><pre><span class="line">// 启动私链</span><br><span class="line">1. bitcoind -printtoconsole -regtest // 其余参数全部参照原来的设计,其余几个项目都去 .bitcoin/bitcoin.conf 下去掉</span><br><span class="line"></span><br><span class="line">////先测试私链起来了没有</span><br><span class="line">2. bitcoin-cli -regtest  -getinfo</span><br><span class="line"></span><br><span class="line">//在查询一下</span><br><span class="line">3. bitcoin-cli -regtest getbestblockhash</span><br><span class="line"></span><br><span class="line">//查询当前用户信息 不出所料的话都应该没有币的</span><br><span class="line">4. bitcoin-cli -regtest getbalance</span><br><span class="line"></span><br><span class="line">//生成一个地址作为初始地址 2N9nBBNFP4BFFZWzvQTwQKF96RxidHx4p8K</span><br><span class="line">5. bitcoin-cli -regtest  getnewaddress</span><br><span class="line"></span><br><span class="line">//验证一下这个地址</span><br><span class="line">6. bitcoin-cli -regtest validateaddress 2N9nBBNFP4BFFZWzvQTwQKF96RxidHx4p8K</span><br><span class="line"></span><br><span class="line">// 输出</span><br><span class="line">&#123;</span><br><span class="line">  "isvalid": true,</span><br><span class="line">  "address": "2N9nBBNFP4BFFZWzvQTwQKF96RxidHx4p8K",</span><br><span class="line">  "scriptPubKey": "a914b55c9006466ed8bad87d9f7af0aed405764eb0a887",</span><br><span class="line">  "isscript": true,</span><br><span class="line">  "iswitness": false</span><br><span class="line">&#125;</span><br><span class="line"></span><br><span class="line">//尝试导出这个私钥  cQUSPugSndqrg9UkVKvgeowJpptyyxHFEE5TcstjJnw8NzeUKPCg</span><br><span class="line">7. bitcoin-cli -regtest dumpprivkey 2N9nBBNFP4BFFZWzvQTwQKF96RxidHx4p8K</span><br><span class="line"></span><br><span class="line">//开始挖矿 注意这里的 api 发生了变化 以前是直接generate 现在推荐下面的方法 直接100个区块到之前生成的地址上</span><br><span class="line">8. bitcoin-cli -regtest generatetoaddress 101 2N9nBBNFP4BFFZWzvQTwQKF96RxidHx4p8K</span><br><span class="line"></span><br><span class="line">//接下来 获取当前账户下的信息   确认一百个块 得到50个比特币</span><br><span class="line">9. bitcoin-cli -regtest getbalance</span><br><span class="line"></span><br><span class="line">//再生成第二个地址 用于接受转账  2NByxgfmQxVuQXB16GY1J2ru6RGfNEdgPk3</span><br><span class="line">10. bitcoin-cli -regtest getnewaddress</span><br><span class="line"></span><br><span class="line">//先创建一笔没有输入的交易 转账给我们的目标地址35个比特币  02000000000100c39dd00000000017a914cd876025d3d13aa7ed999128d40100a9f26a65ea8700000000</span><br><span class="line">11. bitcoin-cli -regtest createrawtransaction '[]' '&#123;"2NByxgfmQxVuQXB16GY1J2ru6RGfNEdgPk3":35&#125;'</span><br><span class="line"></span><br><span class="line">//接下来decode </span><br><span class="line">12. bitcoin-cli -regtest decoderawtransaction 02000000000100c39dd00000000017a914cd876025d3d13aa7ed999128d40100a9f26a65ea8700000000</span><br><span class="line"></span><br><span class="line">输出</span><br><span class="line"></span><br><span class="line">&#123;</span><br><span class="line">  "txid": "776b54a0b65d3af5fd13ab4d947ab72e563ba7a2aa43cd37ebdd820dc50ec9ca",</span><br><span class="line">  "hash": "776b54a0b65d3af5fd13ab4d947ab72e563ba7a2aa43cd37ebdd820dc50ec9ca",</span><br><span class="line">  "version": 2,</span><br><span class="line">  "size": 42,</span><br><span class="line">  "vsize": 42,</span><br><span class="line">  "weight": 168,</span><br><span class="line">  "locktime": 0,</span><br><span class="line">  "vin": [</span><br><span class="line">  ],</span><br><span class="line">  "vout": [</span><br><span class="line">    &#123;</span><br><span class="line">      "value": 35.00000000,</span><br><span class="line">      "n": 0,</span><br><span class="line">      "scriptPubKey": &#123;</span><br><span class="line">        "asm": "OP_HASH160 cd876025d3d13aa7ed999128d40100a9f26a65ea OP_EQUAL",</span><br><span class="line">        "hex": "a914cd876025d3d13aa7ed999128d40100a9f26a65ea87",</span><br><span class="line">        "reqSigs": 1,</span><br><span class="line">        "type": "scripthash",</span><br><span class="line">        "addresses": [</span><br><span class="line">          "2NByxgfmQxVuQXB16GY1J2ru6RGfNEdgPk3"</span><br><span class="line">        ]</span><br><span class="line">      &#125;</span><br><span class="line">    &#125;</span><br><span class="line">  ]</span><br><span class="line">&#125;</span><br><span class="line"></span><br><span class="line">//使用 fundrawtransaction 计算出交易费  输入为刚才得到的 raw transaction 02000000000100c39dd00000000017a914cd876025d3d13aa7ed999128d40100a9f26a65ea8700000000 </span><br><span class="line">13. bitcoin-cli -regtest fundrawtransaction 02000000000100c39dd00000000017a914cd876025d3d13aa7ed999128d40100a9f26a65ea8700000000</span><br><span class="line">&#123;</span><br><span class="line">  "hex": "02000000019e667f70450d80e036c5763b4ece68479a047a67efcf483f8bf2e56c50ca5f140000000000feffffff02082268590000000017a914ebec149b57c6c84ab9a5302dae8150369d9c51fd8700c39dd00000000017a914cd876025d3d13aa7ed999128d40100a9f26a65ea8700000000",</span><br><span class="line">  "fee": 0.00003320,</span><br><span class="line">  "changepos": 0</span><br><span class="line">&#125;</span><br><span class="line"></span><br><span class="line">// decoderawtransaction </span><br><span class="line">14. bitcoin-cli -regtest decoderawtransaction 02000000019e667f70450d80e036c5763b4ece68479a047a67efcf483f8bf2e56c50ca5f140000000000feffffff02082268590000000017a914ebec149b57c6c84ab9a5302dae8150369d9c51fd8700c39dd00000000017a914cd876025d3d13aa7ed999128d40100a9f26a65ea8700000000</span><br><span class="line"></span><br><span class="line">&#123;</span><br><span class="line">  "txid": "704bd8b218ab5dc934a6388f139659f0626a93af1d77814d34a8123590641500",</span><br><span class="line">  "hash": "704bd8b218ab5dc934a6388f139659f0626a93af1d77814d34a8123590641500",</span><br><span class="line">  "version": 2,</span><br><span class="line">  "size": 115,</span><br><span class="line">  "vsize": 115,</span><br><span class="line">  "weight": 460,</span><br><span class="line">  "locktime": 0,</span><br><span class="line">  "vin": [</span><br><span class="line">    &#123;</span><br><span class="line">      "txid": "145fca506ce5f28b3f48cfef677a049a4768ce4e3b76c536e0800d45707f669e",</span><br><span class="line">      "vout": 0,</span><br><span class="line">      "scriptSig": &#123;</span><br><span class="line">        "asm": "",</span><br><span class="line">        "hex": ""</span><br><span class="line">      &#125;,</span><br><span class="line">      "sequence": 4294967294</span><br><span class="line">    &#125;</span><br><span class="line">  ],</span><br><span class="line">  "vout": [</span><br><span class="line">    &#123;</span><br><span class="line">      "value": 14.99996680,</span><br><span class="line">      "n": 0,</span><br><span class="line">      "scriptPubKey": &#123;</span><br><span class="line">        "asm": "OP_HASH160 ebec149b57c6c84ab9a5302dae8150369d9c51fd OP_EQUAL",</span><br><span class="line">        "hex": "a914ebec149b57c6c84ab9a5302dae8150369d9c51fd87",</span><br><span class="line">        "reqSigs": 1,</span><br><span class="line">        "type": "scripthash",</span><br><span class="line">        "addresses": [</span><br><span class="line">          "2NEkfbXNcp3iQtQjh4RemfTGeGQ6S8uX5kC"</span><br><span class="line">        ]</span><br><span class="line">      &#125;</span><br><span class="line">    &#125;,</span><br><span class="line">    &#123;</span><br><span class="line">      "value": 35.00000000,</span><br><span class="line">      "n": 1,</span><br><span class="line">      "scriptPubKey": &#123;</span><br><span class="line">        "asm": "OP_HASH160 cd876025d3d13aa7ed999128d40100a9f26a65ea OP_EQUAL",</span><br><span class="line">        "hex": "a914cd876025d3d13aa7ed999128d40100a9f26a65ea87",</span><br><span class="line">        "reqSigs": 1,</span><br><span class="line">        "type": "scripthash",</span><br><span class="line">        "addresses": [</span><br><span class="line">          "2NByxgfmQxVuQXB16GY1J2ru6RGfNEdgPk3"</span><br><span class="line">        ]</span><br><span class="line">      &#125;</span><br><span class="line">    &#125;</span><br><span class="line">  ]</span><br><span class="line">&#125;</span><br><span class="line"></span><br><span class="line">// 利用钱包的功能对这次交易进行签名</span><br><span class="line">15. bitcoin-cli -regtest signrawtransactionwithwallet 02000000019e667f70450d80e036c5763b4ece68479a047a67efcf483f8bf2e56c50ca5f140000000000feffffff02082268590000000017a914ebec149b57c6c84ab9a5302dae8150369d9c51fd8700c39dd00000000017a914cd876025d3d13aa7ed999128d40100a9f26a65ea8700000000</span><br><span class="line"></span><br><span class="line">&#123;</span><br><span class="line">  "hex": "020000000001019e667f70450d80e036c5763b4ece68479a047a67efcf483f8bf2e56c50ca5f1400000000171600145ffd0df9539eaf3036a524bf7c41ed5864cc2334feffffff02082268590000000017a914ebec149b57c6c84ab9a5302dae8150369d9c51fd8700c39dd00000000017a914cd876025d3d13aa7ed999128d40100a9f26a65ea8702473044022054074aff080169dc692cb1952eb97205f7c1b7b4a2f14903ee270271fcc9b19102205fdafcafbbb466350e48d891498c1244238866bf17ac11515a1cc4b796fbfdaa0121034824cd575c0c7474fbb49c255ad81892f673f68c2025f5bacfc60bbec910b1ac00000000",</span><br><span class="line">  "complete": true</span><br><span class="line">&#125;</span><br><span class="line"></span><br><span class="line">// 广播  668911f8a41113ffdbf65fd326e20c107dfd62cf3cc86959444f55be94ab78d7</span><br><span class="line">16. bitcoin-cli -regtest sendrawtransaction 020000000001019e667f70450d80e036c5763b4ece68479a047a67efcf483f8bf2e56c50ca5f1400000000171600145ffd0df9539eaf3036a524bf7c41ed5864cc2334feffffff02082268590000000017a914ebec149b57c6c84ab9a5302dae8150369d9c51fd8700c39dd00000000017a914cd876025d3d13aa7ed999128d40100a9f26a65ea8702473044022054074aff080169dc692cb1952eb97205f7c1b7b4a2f14903ee270271fcc9b19102205fdafcafbbb466350e48d891498c1244238866bf17ac11515a1cc4b796fbfdaa0121034824cd575c0c7474fbb49c255ad81892f673f68c2025f5bacfc60bbec910b1ac00000000</span><br><span class="line"></span><br><span class="line">//可以查看一下 </span><br><span class="line">17. bitcoin-cli -regtest getrawtransaction 668911f8a41113ffdbf65fd326e20c107dfd62cf3cc86959444f55be94ab78d7 1</span><br><span class="line"></span><br><span class="line">输出</span><br><span class="line">&#123;</span><br><span class="line">  "txid": "668911f8a41113ffdbf65fd326e20c107dfd62cf3cc86959444f55be94ab78d7",</span><br><span class="line">  "hash": "53171009d8f8984d72276e6f4f19bad12476d272ba6728e8323a2bb3756c77ac",</span><br><span class="line">  "version": 2,</span><br><span class="line">  "size": 247,</span><br><span class="line">  "vsize": 166,</span><br><span class="line">  "weight": 661,</span><br><span class="line">  "locktime": 0,</span><br><span class="line">  "vin": [</span><br><span class="line">    &#123;</span><br><span class="line">      "txid": "145fca506ce5f28b3f48cfef677a049a4768ce4e3b76c536e0800d45707f669e",</span><br><span class="line">      "vout": 0,</span><br><span class="line">      "scriptSig": &#123;</span><br><span class="line">        "asm": "00145ffd0df9539eaf3036a524bf7c41ed5864cc2334",</span><br><span class="line">        "hex": "1600145ffd0df9539eaf3036a524bf7c41ed5864cc2334"</span><br><span class="line">      &#125;,</span><br><span class="line">      "txinwitness": [</span><br><span class="line">        "3044022054074aff080169dc692cb1952eb97205f7c1b7b4a2f14903ee270271fcc9b19102205fdafcafbbb466350e48d891498c1244238866bf17ac11515a1cc4b796fbfdaa01",</span><br><span class="line">        "034824cd575c0c7474fbb49c255ad81892f673f68c2025f5bacfc60bbec910b1ac"</span><br><span class="line">      ],</span><br><span class="line">      "sequence": 4294967294</span><br><span class="line">    &#125;</span><br><span class="line">  ],</span><br><span class="line">  "vout": [</span><br><span class="line">    &#123;</span><br><span class="line">      "value": 14.99996680,</span><br><span class="line">      "n": 0,</span><br><span class="line">      "scriptPubKey": &#123;</span><br><span class="line">        "asm": "OP_HASH160 ebec149b57c6c84ab9a5302dae8150369d9c51fd OP_EQUAL",</span><br><span class="line">        "hex": "a914ebec149b57c6c84ab9a5302dae8150369d9c51fd87",</span><br><span class="line">        "reqSigs": 1,</span><br><span class="line">        "type": "scripthash",</span><br><span class="line">        "addresses": [</span><br><span class="line">          "2NEkfbXNcp3iQtQjh4RemfTGeGQ6S8uX5kC"</span><br><span class="line">        ]</span><br><span class="line">      &#125;</span><br><span class="line">    &#125;,</span><br><span class="line">    &#123;</span><br><span class="line">      "value": 35.00000000,</span><br><span class="line">      "n": 1,</span><br><span class="line">      "scriptPubKey": &#123;</span><br><span class="line">        "asm": "OP_HASH160 cd876025d3d13aa7ed999128d40100a9f26a65ea OP_EQUAL",</span><br><span class="line">        "hex": "a914cd876025d3d13aa7ed999128d40100a9f26a65ea87",</span><br><span class="line">        "reqSigs": 1,</span><br><span class="line">        "type": "scripthash",</span><br><span class="line">        "addresses": [</span><br><span class="line">          "2NByxgfmQxVuQXB16GY1J2ru6RGfNEdgPk3"</span><br><span class="line">        ]</span><br><span class="line">      &#125;</span><br><span class="line">    &#125;</span><br><span class="line">  ],</span><br><span class="line">  "hex": "020000000001019e667f70450d80e036c5763b4ece68479a047a67efcf483f8bf2e56c50ca5f1400000000171600145ffd0df9539eaf3036a524bf7c41ed5864cc2334feffffff02082268590000000017a914ebec149b57c6c84ab9a5302dae8150369d9c51fd8700c39dd00000000017a914cd876025d3d13aa7ed999128d40100a9f26a65ea8702473044022054074aff080169dc692cb1952eb97205f7c1b7b4a2f14903ee270271fcc9b19102205fdafcafbbb466350e48d891498c1244238866bf17ac11515a1cc4b796fbfdaa0121034824cd575c0c7474fbb49c255ad81892f673f68c2025f5bacfc60bbec910b1ac00000000"</span><br><span class="line">&#125;</span><br></pre></td></tr></table></figure>


      
    </div>
    
    
    

    

    

    

    <footer class="post-footer">
      
        <div class="post-tags">
          
            <a href="/tags/区块链/" rel="tag"># 区块链</a>
          
            <a href="/tags/比特币/" rel="tag"># 比特币</a>
          
            <a href="/tags/交易/" rel="tag"># 交易</a>
          
            <a href="/tags/fundrawtransaction/" rel="tag"># fundrawtransaction</a>
          
        </div>
      

      
      
      

      
        <div class="post-nav">
          <div class="post-nav-next post-nav-item">
            
              <a href="/posts/60903/" rel="next" title="使用比特币节点进行交易">
                <i class="fa fa-chevron-left"></i> 使用比特币节点进行交易
              </a>
            
          </div>

          <span class="post-nav-divider"></span>

          <div class="post-nav-prev post-nav-item">
            
              <a href="/posts/34596/" rel="prev" title="构建复杂交易">
                构建复杂交易 <i class="fa fa-chevron-right"></i>
              </a>
            
          </div>
        </div>
      

      
      
    </footer>
  </div>
  
  
  
  </article>



    <div class="post-spread">
      
    </div>
  </div>


          </div>
          


          

  



        </div>
        
          
  
  <div class="sidebar-toggle">
    <div class="sidebar-toggle-line-wrap">
      <span class="sidebar-toggle-line sidebar-toggle-line-first"></span>
      <span class="sidebar-toggle-line sidebar-toggle-line-middle"></span>
      <span class="sidebar-toggle-line sidebar-toggle-line-last"></span>
    </div>
  </div>

  <aside id="sidebar" class="sidebar">
    
    <div class="sidebar-inner">

      

      

      <section class="site-overview-wrap sidebar-panel sidebar-panel-active">
        <div class="site-overview">
          <div class="site-author motion-element" itemprop="author" itemscope itemtype="http://schema.org/Person">
            
              <img class="site-author-image" itemprop="image" src="/uploads/avatar.jpg" alt="TigerInYourDream">
            
              <p class="site-author-name" itemprop="name">TigerInYourDream</p>
              <p class="site-description motion-element" itemprop="description">每一篇文章都是一种进步，每一句感慨都是一次思考</p>
          </div>

          <nav class="site-state motion-element">

            
              <div class="site-state-item site-state-posts">
              
                <a href="/archives/">
              
                  <span class="site-state-item-count">21</span>
                  <span class="site-state-item-name">日志</span>
                </a>
              </div>
            

            
              
              
              <div class="site-state-item site-state-categories">
                <a href="/categories/index.html">
                  <span class="site-state-item-count">5</span>
                  <span class="site-state-item-name">分类</span>
                </a>
              </div>
            

            
              
              
              <div class="site-state-item site-state-tags">
                <a href="/tags/index.html">
                  <span class="site-state-item-count">24</span>
                  <span class="site-state-item-name">标签</span>
                </a>
              </div>
            

          </nav>

          

          

          
          

          
          

          

        </div>
      </section>

      

      

    </div>
  </aside>


        
      </div>
    </main>

    <footer id="footer" class="footer">
      <div class="footer-inner">
        <div class="copyright">&copy; <span itemprop="copyrightYear">2019</span>
  <span class="with-love">
    <i class="fa fa-user"></i>
  </span>
  <span class="author" itemprop="copyrightHolder">TigerInYourDream</span>

  
</div>


  <div class="powered-by">由 <a class="theme-link" target="_blank" href="https://hexo.io">Hexo</a> 强力驱动</div>



  <span class="post-meta-divider">|</span>



  <div class="theme-info">主题 &mdash; <a class="theme-link" target="_blank" href="https://github.com/iissnan/hexo-theme-next">NexT.Muse</a> v5.1.4</div>




        







        
      </div>
    </footer>

    
      <div class="back-to-top">
        <i class="fa fa-arrow-up"></i>
        
      </div>
    

    

  </div>

  

<script type="text/javascript">
  if (Object.prototype.toString.call(window.Promise) !== '[object Function]') {
    window.Promise = null;
  }
</script>









  












  
  
    <script type="text/javascript" src="/lib/jquery/index.js?v=2.1.3"></script>
  

  
  
    <script type="text/javascript" src="/lib/fastclick/lib/fastclick.min.js?v=1.0.6"></script>
  

  
  
    <script type="text/javascript" src="/lib/jquery_lazyload/jquery.lazyload.js?v=1.9.7"></script>
  

  
  
    <script type="text/javascript" src="/lib/velocity/velocity.min.js?v=1.2.1"></script>
  

  
  
    <script type="text/javascript" src="/lib/velocity/velocity.ui.min.js?v=1.2.1"></script>
  

  
  
    <script type="text/javascript" src="/lib/fancybox/source/jquery.fancybox.pack.js?v=2.1.5"></script>
  


  


  <script type="text/javascript" src="/js/src/utils.js?v=5.1.4"></script>

  <script type="text/javascript" src="/js/src/motion.js?v=5.1.4"></script>



  
  

  
  <script type="text/javascript" src="/js/src/scrollspy.js?v=5.1.4"></script>
<script type="text/javascript" src="/js/src/post-details.js?v=5.1.4"></script>



  


  <script type="text/javascript" src="/js/src/bootstrap.js?v=5.1.4"></script>



  


  




	





  





  












  





  

  

  

  
  

  
  


  

  

</body>
</html>
